:10000000000001102D34000079620000053400006A
:10001000796200007962000079620000000000004F
:10002000000000000000000000000000716A0000F5
:100030007962000000000000A16A000079620000FF
:100040007962000079620000796200007962000044
:100050007962000079620000796200007962000034
:100060007962000079620000796200007962000024
:100070007962000079620000796200007962000014
:100080007962000079620000796200007962000004
:1000900079620000796200007962000079620000F4
:1000A00079620000796200007962000079620000E4
:1000B00079620000796200007962000079620000D4
:1000C00079620000796200007962000079620000C4
:1000D00079620000796200007962000079620000B4
:1000E000796200008498000000000010000D0000FC
:1000F000849800000000002000000000000D0010A7
:10010000200A00000000002000000000FFFFFFFFA9
:10011000FFFFFFFFFFFFFFFFFFFFFFFFFFFFFFFFEF
:10012000FFFFFFFFFFFFFFFFFFFFFFFFFFFFFFFFDF
:10013000FFFFFFFFFFFFFFFFFFFFFFFFFFFFFFFFCF
:10014000FFFFFFFFFFFFFFFFFFFFFFFFFFFFFFFFBF
:10015000FFFFFFFFFFFFFFFFFFFFFFFFFFFFFFFFAF
:10016000FFFFFFFFFFFFFFFFFFFFFFFFFFFFFFFF9F
:10017000FFFFFFFFFFFFFFFFFFFFFFFFFFFFFFFF8F
:10018000FFFFFFFFFFFFFFFFFFFFFFFFFFFFFFFF7F
:10019000FFFFFFFFFFFFFFFFFFFFFFFFFFFFFFFF6F
:1001A000FFFFFFFFFFFFFFFFFFFFFFFFFFFFFFFF5F
:1001B000FFFFFFFFFFFFFFFFFFFFFFFFFFFFFFFF4F
:1001C000FFFFFFFFFFFFFFFFFFFFFFFFFFFFFFFF3F
:1001D000FFFFFFFFFFFFFFFFFFFFFFFFFFFFFFFF2F
:1001E000FFFFFFFFFFFFFFFFFFFFFFFFFFFFFFFF1F
:1001F000FFFFFFFFFFFFFFFFFFFFFFFFFFFFFFFF0F
:10020000FFFFFFFFFFFFFFFFFFFFFFFFFFFFFFFFFE
:10021000FFFFFFFFFFFFFFFFFFFFFFFFFFFFFFFFEE
:10022000FFFFFFFFFFFFFFFFFFFFFFFFFFFFFFFFDE
:10023000FFFFFFFFFFFFFFFFFFFFFFFFFFFFFFFFCE
:10024000FFFFFFFFFFFFFFFFFFFFFFFFFFFFFFFFBE
:10025000FFFFFFFFFFFFFFFFFFFFFFFFFFFFFFFFAE
:10026000FFFFFFFFFFFFFFFFFFFFFFFFFFFFFFFF9E
:10027000FFFFFFFFFFFFFFFFFFFFFFFFFFFFFFFF8E
:10028000FFFFFFFFFFFFFFFFFFFFFFFFFFFFFFFF7E
:10029000FFFFFFFFFFFFFFFFFFFFFFFFFFFFFFFF6E
:1002A000FFFFFFFFFFFFFFFFFFFFFFFFFFFFFFFF5E
:1002B000FFFFFFFFFFFFFFFFFFFFFFFFFFFFFFFF4E
:1002C000FFFFFFFFFFFFFFFFFFFFFFFFFFFFFFFF3E
:1002D000FFFFFFFFFFFFFFFFFFFFFFFFFFFFFFFF2E
:1002E000FFFFFFFFFFFFFFFFFFFFFFFFFFFFFFFF1E
:1002F000FFFFFFFFFFFFFFFFFFFFFFFFFFFFFFFF0E
:10030000F8B500BFF8BC08BC9E467047510300001A
:100310009530000055320000093500005B6A00008E
:10032000F8B500BFF8BC08BC9E46704710B5054C38
:10033000237833B9044B13B10448AFF30080012391
:10034000237010BD000D001000000000CC970000CD
:1003500008B5034B1BB103490348AFF3008008BD48
:1003600000000000040D0010CC97000080B483B0A2
:1003700000AF786039603B6818460C37BD465DF8C1
:10038000047B704780B483B000AF78607B68184608
:100390000C37BD465DF8047B704780B483B000AF76
:1003A00078607B6818460C37BD465DF8047B704763
:1003B00080B483B000AF78607B6800229A607B686D
:1003C00018460C37BD465DF8047B704780B582B097
:1003D00000AF78607B689B68002B05D07B689B68CA
:1003E00078687968032298477B6818460837BD46C5
:1003F00080BD80B483B000AF78607B689B68002BC1
:100400000CBF01230023DBB218460C37BD465DF854
:10041000047B704780B400AF034B1B681846BD4691
:100420005DF8047B704700BF1C0D001080B483B0E2
:1004300000AF78600B46FB701346BB70074A7B68C1
:100440001A607B68FA781A717B68BA785A717B688F
:1004500018460C37BD465DF8047B7047C085000028
:1004600080B582B000AF78607B681B6808331B687A
:1004700001217868984700BF0837BD4680BD80B429
:1004800083B000AF78607B681B7918460C37BD4697
:100490005DF8047B704780B483B000AF78607B6800
:1004A0005B7918460C37BD465DF8047B7047FFFF4B
:1004B00080B582B000AF78600B46FB701346BB700E
:1004C0007B68BA78F9781846FFF7B0FF034A7B6873
:1004D0001A607B6818460837BD4680BDA4850000B9
:1004E00080B483B000AF786000BF0C37BD465DF8C4
:1004F000047B704780B582B000AF78600B46FB701C
:10050000084BF9781A785B781B021A43002362F3D0
:100510000F031A46786800F059F800BF0837BD4647
:1005200080BD00BFE481000080B582B000AF78607C
:100530000B46FB70084BF9781A785B781B021A435C
:10054000002362F30F031A46786800F03FF800BFFB
:100550000837BD4680BD00BFE881000080B582B08D
:1005600000AF78600B46FB70FB7883F00103DBB2D1
:100570001946084B1A785B781B021A43002362F372
:100580000F031A46786800F021F800BF0837BD460F
:1005900080BD00BFEC81000080B582B000AF786004
:1005A0000B46FB70F978084B1A785B781B021A43EC
:1005B000002362F30F031A46786800F007F800BFC3
:1005C0000837BD4680BD00BFF0810000F0B587B0A0
:1005D00000AFF8600B46BA80FB72FB683B61194BB9
:1005E0001C683B691846FFF74AFF03461D463B69F6
:1005F0001846FFF750FF03461A466B0113449B0051
:1006000023441B68F97A7A68184601F031FE0546E2
:10061000FB687B610B4B1C687B691846FFF72FFF5B
:1006200003461E467B691846FFF735FF03461A4608
:10063000730113449B0023441D6000BF1C37BD465B
:10064000F0BD00BF200D001080B582B000AF786013
:100650007B681B6804331B6801217868984700BFDA
:100660000837BD4680BD80B582B000AF78607B683A
:100670001B6804331B6800217868984700BF08375F
:10068000BD4680BD80B582B000AF78607B681B68D6
:100690001B6801217868984700BF0837BD4680BDB8
:1006A00080B483B000AF78607B68D3E90023104644
:1006B00019460C37BD465DF8047B704780B483B0A3
:1006C00000AF786039603B68D3E900237968C1E9FD
:1006D00000237B6818460C37BD465DF8047B7047E5
:1006E00080B584B000AFC7E90001D7E9000106F08A
:1006F00079FB024607F10C0300EE102A184600F0C1
:1007000005F8FB6818461037BD4680BD80B582B03D
:1007100000AF786087ED000A7B683A4611461846BC
:1007200000F005F87B6818460837BD4680BD80B4E8
:1007300083B000AF786039603B681A687B681A60E4
:100740007B6818460C37BD465DF8047B704780B562
:1007500082B000AF786087ED000A7B683A461146A8
:100760001846FFF7E4FF7B6818460837BD4680BD92
:1007700080B586B000AF7860786800F007F8F0EEDA
:10078000407AB0EE670A1837BD4680BD80B485B0A8
:1007900000AFF86039723A713B70FB681B6807EE76
:1007A000903AB0EE670A1437BD465DF8047B704797
:1007B00080B400AF034B1B681846BD465DF8047B50
:1007C000704700BF240D001080B586B000AF786080
:1007D00039607B681B6808331B68396878689847FC
:1007E00078614FF00003FB607B69002B0FD07B68C2
:1007F0001B680C331B687868984703463B6107F118
:1008000010037969184601F046FD0346FB60FB685A
:1008100018461837BD4680BDB0B582B000AF7860CD
:1008200039603868FFF73CFF7B68D3E90023841800
:1008300041EB03057B68C3E900457B681846083730
:10084000BD46B0BD80B586B000AF786007F110033B
:10085000184601F03EFD07F1100207F108031146AA
:10086000184601F043FD07F1080319460648FFF753
:10087000D3FF7968044BD3E90023C1E900237868EA
:100880001837BD4680BD00BF280D001080B582B06E
:1008900000AF78607B681846FFF798FD7B681846C4
:1008A0000837BD4680BDFFFF80B483B000AF7860DD
:1008B000044A7B681A607B6818460C37BD465DF8B1
:1008C000047B70478085000090B583B000AF7860EE
:1008D0000B46FB701346BB707B68BA78F9781846F4
:1008E000FFF7A4FD074A7B681A607C68BB7818464E
:1008F00000F0ACF80346E3807B6818460C37BD4631
:1009000090BD00BF6485000080B483B000AF786004
:1009100000BF0C37BD465DF8047B704790B585B0CD
:1009200000AF78600B46FB70786800F0AAF8F860BA
:100930000B4B1B68FA6853F82200094B1C687B6854
:10094000F978DA88002362F30F031A4601F090FC6D
:100950000246FB6844F8232000BF1437BD4690BD13
:10096000400D001080B483B000AF0346FB71FB79EB
:1009700018460C37BD465DF8047B7047B0B584B0AF
:1009800000AF78600B46FB70786800F07AF8F8608A
:100990000F4B1B68FA6853F82250FB781846FFF794
:1009A000E1FF03461A460B4B995C094B1C687B68B8
:1009B000DA88002362F30F031A46284601F058FC38
:1009C0000246FB6844F8232000BF1037BD46B0BD87
:1009D000440D0010F481000080B582B000AF786053
:1009E0000B46FB705723044A0449054803F082FF75
:1009F00000BF0837BD4680BD00820000F8810000BE
:100A000040820000B0B584B000AF78600B46FB7048
:100A10000D4B1B687A68127953F822007B685B796A
:100A20003B7301237B73084B1C687B681B791D4655
:100A3000FB78FA68194601F09DFC034644F825301E
:100A400000BF1037BD46B0BD480D001080B485B062
:100A500000AF0346FB71FB795B00DBB203F01E03C2
:100A6000DBB23B7302237B7300233A7B62F3070301
:100A70007A7B62F30F2318461437BD465DF8047B7A
:100A8000704780B485B000AF78607B685B790F2BCE
:100A900001D9012300E00023FB607B681B795B0028
:100AA0001A46FB68134418461437BD465DF8047BAC
:100AB0007047FFFF80B483B000AF7860124B1B68B3
:100AC00003F00103002B14D1104A114B1A60114A94
:100AD0000F4B5A60104A0E4B9A60104A0C4BDA606A
:100AE0000F4A0B4B1A610F4A094B5A61064B012200
:100AF0001A607B689B00064A134418460C37BD46B3
:100B00005DF8047B704700BF64110010008009206D
:100B10004C110010208009204080092060800920AD
:100B200080800920A080092080B483B000AF786065
:100B30001A4B1B6803F00103002B22D1184B194AF2
:100B400004321A60174A08325A60164A0C329A6008
:100B5000144A1032DA60134A14321A611433114AFB
:100B600024321A600F4A28325A600E4A2C329A6098
:100B70000C4A3032DA600B4A34321A61074B0122D8
:100B80001A607A6813469B0013449B00044A13447E
:100B900018460C37BD465DF8047B70479011001075
:100BA000681100108080024080B400AF024B1846EC
:100BB000BD465DF8047B70478080024080B584B0FC
:100BC00000AFFFF7F1FF03461B689B08FB60F86866
:100BD000FFF7AAFFB860BB681B681A68BB685B6850
:100BE0001B6813437B607B6893FAA3F3B3FA83F328
:100BF0003B60FB685A013B6813441B010A4A1344DB
:100C0000184601F0D7FBBB689B681A6801213B6856
:100C100001FA03F31946BB689B680A431A6000BFD8
:100C20001037BD4680BD00BF4C0D001080B584B0AC
:100C300000AFF8607B600B46FB721346BB72FB682B
:100C40001846FFF731FE234AFB681A60FB6804333D
:100C5000BA7AF97A1846FFF737FEFB680C33BA7A8E
:100C6000F97A1846FFF724FCFB6800225A61FB68FA
:100C700000229A61FB68BA7A1A77FB6800225A77D9
:100C80007B68002B05D1FB6803F10C02FB685A61FD
:100C900002E0FB687A685A61FB7A022B03D1FB6899
:100CA00001225A7709E0FB7A002B03D1FB6800226E
:100CB0005A7702E0FB6802225A77FB7A1846FFF760
:100CC000F9FE03461A68FB689A61FB6818461037FC
:100CD000BD4680BD4085000090B585B000AF78600E
:100CE0000B46FB700023FB737B685B691B68043356
:100CF0001B687A685269002110469847FB78002BE0
:100D00000DD17B689B691A687B681B7F19467B68DD
:100D10009C69104601F064FB034623600CE07B688D
:100D20009B691A687B681B7F19467B689C69104623
:100D300001F069FB0346236000BF1437BD4690BD38
:100D400080B483B000AF78600B46FB70FB78012B5A
:100D500009D17B681B7F1A46012303FA02F27B68E4
:100D60009B699A6108E07B681B7F1A46012303FA9E
:100D700002F27B689B69DA6100BF0C37BD465DF803
:100D8000047B704780B483B000AF78607B689B6958
:100D90005A697B681B7F194601238B4019467B6883
:100DA0009B694A405A6100BF0C37BD465DF8047B21
:100DB000704780B582B000AF78607B689B695A69E4
:100DC0007B681B7F1946104601F02FFB034618462F
:100DD0000837BD4680BD80B483B000AF78607B68C3
:100DE0005B6918460C37BD465DF8047B704780B5DB
:100DF00082B000AF78607B681846FFF7E7FA7B683F
:100E000018460837BD4680BD80B582B000AF786017
:100E10007B6804331846FFF7EAFF7B6818460837FB
:100E2000BD4680BDB0B58CB000AFF860B960134668
:100E3000FB71F86800F0A6F8034683F00103DBB20B
:100E4000002B55D1FFF7E6FA0446236804331D68EA
:100E500026237B6107F1140304332749184601F068
:100E6000FBFA4FF0FF33BB6207F11403194620462B
:100E7000A84707F114031846FFF7C6FFFB685B7F1E
:100E80001946FB681B7F1A464B0113441B011B4A82
:100E90001344B968184601F009FBF86800F096F8A9
:100EA000F862FB79022B02D0FB79002B0CD1FB6A94
:100EB000DB681A68FB681B7F1946FB6ADC68104612
:100EC00001F0A1FA03462360FB79022B02D0FB79E3
:100ED000012B0ED1FB6A1B691A68FB681B7F194640
:100EE000FB6A1C69104601F08EFA0346236000E09D
:100EF00000BF3037BD46B0BDBD0B00004C0D00102B
:100F000090B585B000AF7860786800F03BF8034694
:100F100083F00103DBB2002B2DD17B685B7F194688
:100F20007B681B7F1A464B0113441B01144A134470
:100F30000021184601F0D5FA786800F047F8F8600B
:100F4000FB68DB681A687B681B7F1946FB68DC68F6
:100F5000104601F045FA03462360FB681B691A68D6
:100F60007B681B7F1946FB681C69104601F038FA44
:100F70000346236000E000BF1437BD4690BD00BFAC
:100F80004C0D001080B584B000AF78607B685B7F4B
:100F9000022B14BF01230023FB73FB7B83F00103AF
:100FA000DBB2002B06D04FF4A573054A054906486D
:100FB00003F0A0FCFB7B18461037BD4680BD00BF88
:100FC0009082000028840000C082000080B582B0BA
:100FD00000AF78607B685B7F1846FFF7A5FD03468E
:100FE00018460837BD4680BD90B585B000AF786023
:100FF00039607C683B68184600F022F8F0EE407AD1
:10100000C7ED027A07F10C0207F1080319462046E2
:1010100000F005F87B6818461437BD4690BD80B4D3
:1010200085B000AFF860B9607A60BB681A68FB6889
:101030001A60FB6818461437BD465DF8047B70479C
:1010400080B586B000AF7860786800F007F8F0EE01
:10105000407AB0EE670A1837BD4680BD80B485B0CF
:1010600000AFF86039723A713B70FB68D3ED007ADB
:101070009FED057A67EE877AB0EE670A1437BD46B2
:101080005DF8047B704700BF0024744980B483B0CE
:1010900000AF78607B681B6807EE903AB0EE670A95
:1010A0000C37BD465DF8047B7047FFFF90B585B0F7
:1010B00000AF78600023FB73FFF77AFB03461A68E2
:1010C00014321268796849680431184690477B6881
:1010D0005B689B681B6804331B687A685268906879
:1010E0007A685268127D114698477B685B68DB68B6
:1010F0001B6804331B687A685268D0687A68526843
:10110000127D114698477B685B681B691B68043336
:101110001B687A68526810697A685268127D1146B5
:1011200098477B685B681B6818687B685B681C680D
:101130001D4B1A785B781B021A43002362F30F03DE
:101140001A46002101F094F8034623607B685B682F
:101150001B6858687B685B681C68144B1A785B785E
:101160001B021A43002362F30F03194601F0D3F95F
:10117000034663607B685B681B6858687B685B68D4
:101180001C680B4B1A785B781B021A43002362F32E
:101190000F03194601F0CEF9034663600023184699
:1011A0001437BD4690BD00BF688400007C840000F9
:1011B0007884000080B582B000AF78607B685B689F
:1011C0001B68D868074B1A785B781B021A43002308
:1011D00062F30F03194601F0BCF9034618460837BD
:1011E000BD4680BD8084000080B582B000AF7860CD
:1011F0000B467B807B685B681B687A889A6078689E
:10120000FFF7D8FF0346002B01D000BFF7E77B684C
:101210005B681B689B689BB218460837BD4680BD5B
:1012200080B483B000AF0346FB71FB7918460C37DE
:10123000BD465DF8047B704790B585B000AF78601F
:101240000B46FB700323FB73FB781846FFF7E8FFA0
:1012500003460333BB737B685B681B6818687B6855
:101260005B681C68084BB97B1A785B781B021A43D1
:10127000002362F30F031A4600F0FAFF03462360CF
:1012800000BF1437BD4690BD6484000080B582B0B5
:1012900000AF7860786801F06BF9034618460837AC
:1012A000BD4680BD80B52DED028B84B000AF786067
:1012B00039607B681846FFF7E9FEB0EE408A3B686C
:1012C0001846FFF7E3FEF0EE407AC7ED037A07F128
:1012D0000C031846FFF74CFAB0EE407AC8EE077AD6
:1012E00007F10803B0EE670A184600F007F8BB687C
:1012F00018461037BD46BDEC028B80BD80B582B06C
:1013000000AF786087ED000A7B683A4611461846C0
:10131000FFF70DFA7B6818460837BD4680BDFFFF12
:1013200090B589B000AFF860B96011461A460B4617
:10133000FB711346BB71FB685B681B681868FB6830
:101340005B681C682F4BF9791A785B781B021A438B
:10135000002362F30F031A4601F00CF803462360E2
:10136000FB685B681B681868FB685B681C68264B39
:10137000B9791A785B781B021A43002362F30F03D2
:101380001A4600F0F7FF03462360FFF711FA024602
:10139000FB685B68043319461046FFF715FA0346ED
:1013A0007B6107F1080207F1140311461846FFF7A5
:1013B00079FF0346BB6107F118031846FFF766FF84
:1013C0000346FB83FA8BFB685B681B68D2B21A6129
:1013D000FB685B681B681868FB8B1912FB685B680D
:1013E0001C680A4B1A785B781B021A43002362F3CD
:1013F0000F031A4601F0D8F80346236000BF2437D4
:10140000BD4690BD6C8400007084000074840000B0
:1014100080B483B000AF78607B681B78002B0DD15F
:101420007B685B78002B09D17B689B78002B05D10A
:101430007B68DB78002B01D1012300E000231846F4
:101440000C37BD465DF8047B704780B483B000AFB5
:10145000786000BF0C37BD465DF8047B704780B4F0
:1014600083B000AF786000BF0C37BD465DF8047BE9
:10147000704780B483B000AF7860802318460C3783
:10148000BD465DF8047B704780B483B000AF7860E0
:10149000402318460C37BD465DF8047B704780B486
:1014A00085B000AF786000233B7300237B7300237B
:1014B000BB730123FB7300233A7B62F307037A7B40
:1014C00062F30F23BA7B62F31743FA7B62F31F6365
:1014D00018461437BD465DF8047B704780B588B068
:1014E00002AFF860B9607A603B60FB68DB681B683C
:1014F00004331B68FA68D2687968C9B21046984705
:10150000FB689B681B6804331B68FA6892680021BB
:101510001046984700237B617A693B689A4222D241
:101520003A687B69D31A013BDB00BA6822FA03F3FD
:10153000FB747B68002B07D1FB7C00933F23114A8F
:101540001149124803F0D6F9FB685B681B68043345
:101550001B68FA685268F97C89B2104698477B6923
:1015600001337B61D8E7FB689B681B6804331B6809
:10157000FA68926801211046984700BF1837BD46A7
:1015800080BD00BF58830000CC840000A083000011
:10159000B0B584B000AF78607B689B681B681B683F
:1015A0007A6892680121104698477B68DB681B685F
:1015B0001B687A68D2680121104698477B689B684F
:1015C0001B6804331B687A689268012110469847AB
:1015D0007B68DB681B6804331B687A68D26801216A
:1015E000104698477B685B681B681B687A6852687E
:1015F000104698477B685B681B6808331B687A68ED
:1016000052680421104698477B685B681B680C335E
:101610001C687B685D684FF002004FF00001FFF727
:101620005FF80346FB6007F10C0207F1080311465F
:101630001846FFF7D9FC00230022B9682846A047C6
:10164000786800F095F8786800F004F800BF10376B
:10165000BD46B0BD80B582B000AF786001230022E6
:10166000AE217868FFF73AFF022300224DF2805145
:101670007868FFF733FF022300224AF63F017868BB
:10168000FFF72CFF022300224FF453417868FFF745
:1016900025FF0123002240217868FFF71FFF022366
:1016A000002248F614517868FFF718FF0123002242
:1016B000A1217868FFF712FF01230022C821786872
:1016C000FFF70CFF022300224DF612217868FFF786
:1016D00005FF0223002248F2CF117868FFF7FEFED3
:1016E000022300224DF6F1117868FFF7F7FE02237E
:1016F00000224DF640317868FFF7F0FE786800F080
:1017000017F801230022A4217868FFF7E7FE0123E0
:101710000022A6217868FFF7E1FE01230022AF2115
:101720007868FFF7DBFE00BF0837BD4680BDFFFFCE
:1017300080B582B000AF7860022300224FF40051E0
:101740007868FFF7CBFE0323002207497868FFF78C
:10175000C5FE0323002205497868FFF7BFFE00BFDE
:101760000837BD4680BD00BF7F0021000700220072
:1017700080B582B000AF78607B68103340F2C16200
:101780000021184606F0DAFC00BF0837BD4680BDD0
:1017900080B58CB000AFF860B9607A603B607B6860
:1017A00003F00703FB627B68DB10BB620122FB6A6C
:1017B00002FA03F3DB437B623B461846FFF728FE41
:1017C000034683F0010387F8233097F82320FB6A50
:1017D00002FA03F3FB61BA6A13465B0113449B00F0
:1017E0001344BA6813441033FA681344BB61BB69ED
:1017F0001B781A467B6A1340FA6913437B617B6945
:10180000DAB2BB691A7000BF3037BD4680BD80B503
:1018100084B000AF78607868FFF78AFF0023FB6030
:10182000FB68072B1ED80023BB60BB687F2B15D835
:101830007968FA6813465B0113449B001344CA1885
:10184000BB68134410331B781946012301227868C2
:10185000FFF744FEBB680133BB60E6E7FB6801337A
:10186000FB60DDE700BF1037BD4680BD80B483B0AC
:1018700000AF78607B6800221A707B6800225A7083
:101880007B6800229A707B680022DA707B681846B9
:101890000C37BD465DF8047B704790B583B000AF50
:1018A000786039607B683A681A607B6800225A6009
:1018B0007B6804331846FFF7D9FF7B6800229A60E3
:1018C0007B680022DA603B681B681B6838689847B1
:1018D00002467B689A603B681B6804331B68386863
:1018E000984702467B68DA603B681B6808331B68D0
:1018F0007C6838689847034663607B6818460C37F5
:10190000BD4690BD80B582B000AF78607B681B6833
:101910001B680C331B687A6812681046984700BF32
:101920000837BD4680BD80B582B000AF78607B6867
:101930001B681B6820331B687A681268104698473A
:1019400000BF0837BD4680BD80B582B000AF78606B
:101950007B681B681B6818331B687A68126810461E
:10196000984700BF0837BD4680BDFFFF80B588B0EF
:1019700000AFF860B9607A60FB70FB787B61FB6850
:101980005B683B610023FB61FB69072B26DC0023BE
:10199000BB61BB69072B1DDC144A7B69DB001A4461
:1019A000FB6913441B781A46BB6942FA03F303F040
:1019B0000103002B0AD0BA68BB69134419467A6840
:1019C000FB6913441A46F86800F012F8BB6901334A
:1019D000BB61DEE7FB690133FB61D5E7FB683A6970
:1019E0005A6000BF2037BD4680BD00BF34010010E3
:1019F00090B585B000AFF860B9607A60FB689B680D
:101A0000BA689A4210D8FB68DB687A689A420BD8A9
:101A1000FB681B681B681C331C68FB681868B96886
:101A20007A68FB685B68A04700BF1437BD4690BD6D
:101A300080B582B000AF78607B685B691846FFF7BD
:101A400061FF7B685B691846FFF77EFF7B685B6917
:101A50001846FFF768FF00BF0837BD4680BD0EB4CB
:101A600090B5C6B000AF3B1D186007F5947207F142
:101A700008031A6007F1080307F10C001B68D7F888
:101A800024214FF4807102F057FF0346C7F810314C
:101A90000023C7F81431D7F81421D7F810319A422F
:101AA00053D207F10C02D7F8143113441B7887F88E
:101AB0000F3197F80F310A2B0BD13B1D1B68002209
:101AC0005A603B1D1B681B685A1C3B1D1B681A6033
:101AD00035E097F80F413B1D1B681A683B1D1B68DA
:101AE0009B6813443A1D1268D268B3FBF2F102FB03
:101AF00001F2991A3B1D1B685A683B1D186800F0DB
:101B0000CBF8034622461A703B1D1B685B685A1CC3
:101B10003B1D1B685A603B1D1B685A683B1D1B68B8
:101B20001B699A420AD33B1D1B6800225A603B1D69
:101B30001B681B685A1C3B1D1B681A6000BFD7F846
:101B400014310133C7F81431A5E73B1D186800F0C4
:101B50003CF83B1D1B681A683B1D1B68DB689A42FA
:101B600029D33B1D1B689B6801333A1D1268D2685C
:101B7000B3FBF2F102FB01F29A1A3B1D1B689A605B
:101B80003B1D1B68DB685A1E3B1D1B681A603B1D12
:101B90001B681A683B1D1B689B6813443A1D12683A
:101BA000D268B3FBF2F102FB01F29A1A3B1D114617
:101BB000186800F054F8D7F81431184607F58C77F8
:101BC000BD46BDE8904003B0704790B587B000AF08
:101BD00078607B685B691846FFF7B6FE00237B617F
:101BE0007B68DB681A467B6993422EDA00233B61EF
:101BF0007B681B691A463B69934222DA3B69DB002A
:101C0000FB607B69DB00BB607B685C697B689A6812
:101C10007B6913447A68D268B3FBF2F102FB01F2EC
:101C20009B1A3A691946786800F036F803461B7823
:101C3000BA68F9682046FFF799FE3B6901333B61BA
:101C4000D6E77B6901337B61CAE77B685B6918462D
:101C5000FFF769FE7B6818461C37BD4690BD80B50E
:101C600084B000AF786039600023FB607B681B693B
:101C7000FA689A420BD2FA683968786800F00CF872
:101C8000034620221A70FB680133FB60EEE77B6895
:101C900018461037BD4680BD80B485B000AFF860EF
:101CA000B9607A60FB689A69FB681B69B96801FBD7
:101CB00003F17B680B44134418461437BD465DF8A6
:101CC000047B704780B483B000AF78603960094A04
:101CD0007B681A607B683A685A607B6800221A72D7
:101CE0007B6800225A727B6818460C37BD465DF847
:101CF000047B7047E084000080B582B000AF78605C
:101D00007B685B681B681B687A6852680021104614
:101D100098477B685B681B6810331B687A68526859
:101D20001046984703461846FEF79AFB00BF08374F
:101D3000BD4680BD80B584B000AF78600023FB73E2
:101D40007B685B681B680C331B687A6852681046B6
:101D500098470346002B08D07B681B7A83F0010369
:101D6000DBB2002B01D0012300E00023002B03D0C5
:101D70007B6801221A721CE07B685B681B680C336D
:101D80001B687A68526810469847034683F001033F
:101D9000DBB2002B05D07B681B7A002B01D001231E
:101DA00000E00023002B04D00123FB737B6800229A
:101DB0001A72FB7B18461037BD4680BD80B584B0D3
:101DC00000AF78600023FB737B685B681B680C3393
:101DD0001B687A68526810469847034683F00103EF
:101DE000DBB2002B08D07B685B7A83F00103DBB2A7
:101DF000002B01D0012300E00023002B03D07B68DF
:101E000001225A7219E07B685B681B680C331B68FF
:101E10007A685268104698470346002B05D07B68C5
:101E20005B7A002B01D0012300E00023002B04D0BB
:101E30000123FB737B6800225A72FB7B1846103724
:101E4000BD4680BD80B483B000AF78607B6800225F
:101E50001A727B6800225A7200BF0C37BD465DF8CB
:101E6000047B704780B483B000AF78607B685B68A8
:101E700018460C37BD465DF8047B7047B0B5E2B03C
:101E800000AF6B461D46D84B1B6803F00103002BC7
:101E900008D1002316220121D448FEF7C7FED24BF9
:101EA00001221A60D24B1B6803F00103002B08D1FA
:101EB000002319220121CF48FEF7B8FECC4B0122A6
:101EC0001A60CD4B1B6803F00103002B06D1CB49F0
:101ED000CB48FFF7E2FCC84B01221A60C84BC7F899
:101EE00068310023C7F8DC3007F1E0037C220021D1
:101EF000184606F023F907F1DC0207F1C003D7F812
:101F00006811184600F062FB07F1C0031846FFF79E
:101F10008FFD07F1A000002313220121FEF786FEAA
:101F200007F1800000230F220121FEF77FFE07F159
:101F3000600000231E220021FEF778FE07F140001A
:101F400000231D220021FEF771FE07F1A00207F118
:101F5000340311461846FFF7B5FE07F1800207F17A
:101F6000280311461846FFF7ADFE07F1600207F19E
:101F70001C0311461846FFF7A5FE07F1400207F1C2
:101F8000100311461846FFF79DFE9E48FEF77AFBA8
:101F90009D48FEF777FB9D48FEF774FB9948FEF7D6
:101FA00053FB9948FEF750FB9848FEF74DFB07F1AD
:101FB00034031846FFF7A0FE07F128031846FFF781
:101FC0009BFE07F11C031846FFF796FE07F110036E
:101FD0001846FFF791FE0023C7F880310023C7F8A9
:101FE00084310023C7F87C310223C7F86431D7F865
:101FF00064315C1EC7F860412346013318464FF038
:1020000000014FF000024FF000034B0143EAD063A0
:1020100042012346013318464FF000014FF0000201
:102020004FF000034B0143EAD063420123460133E2
:102030009B000733DB08DB00ADEB030D6B4603337E
:102040009B089B00C7F85C310023C7F87831002358
:10205000C7F87431D7F87821D7F864319A426DDA2D
:1020600007F128031846FFF7A9FE0346012B0CBF12
:1020700001230023DBB2002B05D00123C7F88031F8
:102080006048FEF7F0FA07F11C031846FFF796FECA
:102090000346012B0CBF01230023DBB2002B05D02C
:1020A0000123C7F884315848FEF7DDFA07F1100321
:1020B0001846FFF783FE0346012B0CBF01230023C4
:1020C000DBB2002B05D00123C7F87C314F48FEF767
:1020D000CAFA07F134031846FFF770FE0346012BD6
:1020E0000CBF01230023DBB2002BB3D0D7F87C3127
:1020F0005A00D7F8843113445A00D7F88031D118E8
:10210000D7F85C31D7F8782143F822103D48FEF724
:102110009BFA3D48FEF798FA3C48FEF795FA0023F3
:10212000C7F880310023C7F884310023C7F87C3119
:10213000D7F878310133C7F878318BE70023C7F837
:102140007831D7F87821D7F864319A4210DAD7F885
:102150005C31D7F8782153F82230D7F87421134432
:10216000C7F87431D7F878310133C7F87831E8E728
:10217000D7F85C311A6807F1C00325491846FFF704
:102180006EFCD7F85C315A6807F1C0032149184644
:10219000FFF765FC07F1C003D7F874211E49184604
:1021A000FFF75DFC0023C7F87031D7F87431002BBE
:1021B00034DDD7F87431002B03F00103B8BF5B4264
:1021C00019463B46D7F8702143F82210D7F87431EE
:1021D000DA0F13445B10C7F87431D7F8703101334C
:1021E000C7F87031E1E700BF381200101812001074
:1021F0005C1200103C120010701200103C05001020
:1022000060120010B8110010D8110010F811001061
:10221000E0830000F08300000084000007F1C003A9
:1022200011491846FFF71BFC0323C7F86C31D7F898
:102230006C31002B10DB3B46D7F86C2153F8222081
:1022400007F1C00309491846FFF709FCD7F86C31BC
:10225000013BC7F86C31EAE70023AD46184607F5A5
:10226000C477BD46B0BD00BF1484000024840000C4
:1022700080B584B000AFF8600B46BA80FB723B7942
:102280001A467B79F97AF86800F0C2F903461846D5
:102290001037BD4680BD80B584B000AF786039602E
:1022A0007B681846FEF7F2FEF0EE406A3B6807EEE8
:1022B000903AF8EE677A86EEA77A07F10C03B0EE53
:1022C000470A1846FEF743FAFB6818461037BD4622
:1022D00080BD80B582B000AF78607B68184600F0A2
:1022E000C4F900BF78680837BD4680BD80B584B0AA
:1022F00000AF7860396007F108033968184600F0CC
:10230000C8F907F108031846FEF7CAF902460B465A
:102310007968C1E900237B6818461037BD4680BD47
:1023200090B583B000AF786039607B681846FEF7DF
:102330003FF83B68184600F0BBF90346002B0FD06E
:102340007C683B46184600F0C3F903461946204610
:1023500000F0C9F97B68054ADA607B68044A9A6034
:102360007B6818460C37BD4690BD00BF0B270000A8
:102370002F27000080B584B000AFF8600B46BA800C
:10238000FB723B791A467B79F97AF86800F0FAF922
:10239000034618461037BD4680BD80B582B000AFF9
:1023A00078607B681846FEF703F87B6818460837A4
:1023B000BD4680BD80B582B000AF78607B681846AE
:1023C000FEF717F80346002B01D004F0DDFB7B6815
:1023D000DB687A681046984700BF0837BD4680BD65
:1023E00080B483B000AF7860396001223B6802FAA4
:1023F00003F3DB431A467B68134018460C37BD468F
:102400005DF8047B704780B483B000AF78603960BA
:1024100001223B6802FA03F31A467B68134318460D
:102420000C37BD465DF8047B704780B483B000AFC5
:102430007860396001223B6802FA03F31A467B6830
:102440001340002B14BF01230023DBB218460C37C6
:10245000BD465DF8047B704790B583B000AF7860EF
:1024600039607B681846FDF7A3FF3B68184600F00B
:10247000B6F90346002B0FD07C683B46184600F0A7
:10248000BEF903461946204600F0C4F97B68054AA8
:10249000DA607B68044A9A607B6818460C37BD4650
:1024A00090BD00BF392800005528000080B586B0D7
:1024B00000AF7860396007F108033968184600F00A
:1024C000F4F907F108037968184600F010FA07F1EB
:1024D00008031846FEF78BFC7B6818461837BD4684
:1024E00080BD80B582B000AF786039607B689B6842
:1024F000002B0BD07B689B6878687968032298472B
:102500007B6800229A607B680022DA607B6818464C
:102510000837BD4680BD80B582B000AF7860398095
:102520003B7819467868FFF75BFF03461846083783
:10253000BD4680BD80B582B000AF786039803B7801
:1025400019467868FFF75FFF034618460837BD460F
:1025500080BD80B582B000AF786039803B78194685
:102560007868FFF762FF034618460837BD4680BD0E
:1025700080B584B000AF78607B681846FEF786FDB2
:10258000F0EE407AC7ED037A07F10C03184600F02D
:10259000CFF9F0EE407AFCEEE77A17EE903A9BB274
:1025A00018461037BD4680BD80B584B000AFF860D6
:1025B000B960BA803B791A467B79B968F86800F04F
:1025C000C5F9034618461037BD4680BD80B485B0B6
:1025D00000AFF860B9607A60FB6800221A60FB689F
:1025E00000225A60FB6800229A60FB680822DA60C9
:1025F000FB6810221A61FB68BA685A617A68FB6846
:102600009A61FB6818461437BD465DF8047B704735
:1026100080B489B000AFF8607A603B600B46FB7213
:102620004FF0FF33FB612023BB613B68C3F1200304
:102630004FF0FF3222FA03F37B617A697B6802FA7A
:1026400003F3DB43FA681340FB60FA7A7B691A40B4
:102650007B6802FA03F3FA681343FB60FB681846D1
:102660002437BD465DF8047B704780B584B000AF69
:1026700078604FF001024FF00003C7E9022307F131
:1026800008031946786800F08DF978681037BD4660
:1026900080BD80B582B000AF786039607B683968F2
:1026A000184600F09FF900BF78680837BD4680BD26
:1026B00080B483B000AF78607B68002B14BF012327
:1026C0000023DBB218460C37BD465DF8047B70472B
:1026D00080B483B000AF78607B6818460C37BD4685
:1026E0005DF8047B704790B585B000AF78603960C5
:1026F0003868FFF7EDFF034622461946786800F078
:10270000ABF900BF1437BD4690BD80B582B000AFB5
:1027100078603960386800F0B8F903461B687A6859
:102720001046984700BF78680837BD4680BDB0B5F1
:1027300086B000AFF860B9601346FB71FB79032BDC
:1027400016D0032B19DC012B02D0022B0AD014E087
:10275000B86800F09AF90446F86800F0A6F9034654
:102760001C600AE02A46B968F86800F0AAF904E09B
:102770002146F86800F0BEF900BF0023184618375C
:10278000BD46B0BD80B489B000AFF8607A603B60F0
:102790000B46FB724FF0FF33FB612023BB613B68AC
:1027A000C3F120034FF0FF3222FA03F37B617A6911
:1027B0007B6802FA03F3DB43FA681340FB60FA7AA2
:1027C0007B691A407B6802FA03F3FA681343FB60E3
:1027D000FB6818462437BD465DF8047B704780B41B
:1027E00083B000AF78607B68002B14BF0123002307
:1027F000DBB218460C37BD465DF8047B704780B4E9
:1028000083B000AF78607B6818460C37BD465DF832
:10281000047B704790B585B000AF78603960386848
:10282000FFF7EDFF034622461946786800F0CAF923
:1028300000BF1437BD4690BD80B582B000AF786050
:10284000786800F0D8F903461B68984700BF08373E
:10285000BD4680BDB0B586B000AFF860B960134624
:10286000FB71FB79032B16D0032B19DC012B02D053
:10287000022B0AD014E0B86800F0BDF90446F868ED
:1028800000F0C9F903461C600AE02A46B968F868F6
:1028900000F0CDF904E02146F86800F0E1F900BF4E
:1028A000002318461837BD46B0BD80B582B000AFD2
:1028B000786039607B681846FDF77AFD386800F06B
:1028C000DBF90346002B0DD03B689B6878683968BC
:1028D000022298473B68DA687B68DA603B689A684E
:1028E0007B689A607B6818460837BD4680BD80B516
:1028F00082B000AF786039607B683A68114618464C
:1029000000F00FF97B6803F108023B6808331946B1
:10291000104600F038F97B6803F10C023B680C3379
:102920001946104600F0C3F900BF0837BD4680BD08
:1029300080B586B000AF7860786800F0D7F9F0EE27
:10294000407AB0EE670A1837BD4680BD80B489B0C2
:1029500000AFF860B9607A603B604FF0FF33FB6115
:102960002023BB613B68C3F120034FF0FF3222FA02
:1029700003F37B617A697B6802FA03F3DB43FA684D
:102980001340FB60BA687B691A407B6802FA03F364
:10299000FA681343FB60FB6818462437BD465DF8B0
:1029A000047B704780B483B000AF786039603B68C7
:1029B000D3E900237968C1E900237B6818460C3706
:1029C000BD465DF8047B704780B483B000AF78608B
:1029D0007B68D3E90023104619460C37BD465DF8E5
:1029E000047B7047B0B584B000AF78603960386858
:1029F000FFF7EAFF02460B464FF000044FF00005D8
:102A00005D0145EAD265540122462B46121A63EB5A
:102A100001034FF000044FF000059D0045EA927558
:102A2000940022462B46121841EB03034FF000009E
:102A30004FF00001D90041EA5271D00002460B4626
:102A4000C7E9022307F1080319467868FDF736FE47
:102A500078681037BD46B0BD90B585B000AFF8605E
:102A6000B9603A71B868FFF733FE03461C68F8682E
:102A7000FDF788FC034619460420FDF777FC034662
:102A80001C6000BF1437BD4690BD80B584B000AF58
:102A90007860786800F03CF9F860F86800F044F974
:102AA000034618461037BD4680BD80B582B000AFE2
:102AB00078607868FDF766FC034618460837BD461F
:102AC00080BD90B585B000AFF860B9603A71B86864
:102AD00000F01EF903461C68F868FDF753FC034636
:102AE00019460420FDF742FC03461C6000BF143762
:102AF000BD4690BD80B582B000AF7860397078680F
:102B000000F01DF900BF0837BD4680BD80B483B01A
:102B100000AF78607B6818460C37BD465DF8047BD3
:102B2000704780B584B000AF786039607868FFF78F
:102B3000EDFF024607F1080392E8030083E8030073
:102B40003868FFF7E3FF02467B6892E8030083E8FA
:102B5000030007F108031846FFF7D8FF02463B6859
:102B600092E8030083E8030000BF1037BD4680BD34
:102B700080B483B000AF78607B6818460C37BD46E0
:102B80005DF8047B704780B584B000AF7860396031
:102B90007868FFF7EDFF03461B68FB603868FFF7B6
:102BA000E7FF03461A687B681A6007F10C031846B2
:102BB000FFF7DEFF03461A683B681A6000BF103754
:102BC000BD4680BD90B585B000AFF860B9603A7180
:102BD000B868FFF714FE03461C68F868FDF7D2FBDF
:102BE000034619460420FDF7C1FB03461C6000BFE5
:102BF0001437BD4690BD80B584B000AF786078686A
:102C000000F0A9F8F860F86800F0B1F8034618463B
:102C10001037BD4680BD80B582B000AF786078685F
:102C2000FDF7B0FB034618460837BD4680BD90B59A
:102C300085B000AFF860B9603A71B86800F08BF801
:102C400003461C68F868FDF79DFB034619460420FF
:102C5000FDF78CFB03461C6000BF1437BD4690BDDA
:102C600080B582B000AF78603970786800F08AF87B
:102C700000BF0837BD4680BD80B582B000AF786028
:102C80007B681846FDF7B5FB034683F00103DBB212
:102C900018460837BD4680BD80B483B000AF786069
:102CA0007B6818460C37BD465DF8047B704780B5DD
:102CB00084B000AF786039607868FFF7EDFF0346B5
:102CC0001B68FB603868FFF7E7FF03461A687B68FC
:102CD0001A6007F10C031846FFF7DEFF03461A6877
:102CE0003B681A6000BF1037BD4680BD80B485B018
:102CF00000AFF86039723A713B70FB681B6807EEF1
:102D0000903AB0EE670A1437BD465DF8047B704711
:102D100080B582B000AF78607868FDF73EFB03466F
:102D200018460837BD4680BD80B483B000AF7860D8
:102D30007B6818460C37BD465DF8047B704780B54C
:102D400082B000AF78607868FDF71CFB0346184638
:102D50000837BD4680BD80B582B000AF7860786826
:102D6000FDF71BFB034618460837BD4680BD80B4FF
:102D700083B000AF78607B6818460C37BD465DF8BD
:102D8000047B704780B582B000AF78607868FDF74B
:102D9000F9FA034618460837BD4680BD90B583B0A2
:102DA00000AF7860054C064B9C4204D0103C204696
:102DB000FEF71DF8F7E70C37BD4690BD4C1100102B
:102DC0004C0D00102DE9F04182B000AF7860396001
:102DD0007B68012B40F0FC803B684FF6FF7293420A
:102DE00040F0F6807D4B1B6803F00103002B05D1FA
:102DF0007A4B01221A607A4A7A4B1A607A4B1B6826
:102E000003F00103002B0BD1774B01221A607749A5
:102E10007748FFF785FA774A7749754803F0ACFEA3
:102E2000764B1B6803F00103002B06D1734B012284
:102E30001A606B4B1A46724B1A60724B1B6803F098
:102E40000103002B06D16F4B01221A60644B403303
:102E50006D4A13606D4B1B6803F00103002B06D114
:102E60006A4B01221A605E4B6833694A1360694BF2
:102E70001B6803F00103002B1AD1664B01221A6074
:102E8000654B01249846002C0DDB46461F25002D7E
:102E900005DB3046FFF781FA1036013DF7E708F50C
:102EA0000078013CEFE7534A5C49002003F064FEE0
:102EB0005B4B1B6803F00103002B05D1584B01222B
:102EC0001A60584A584B1A60584B1B6803F00103AC
:102ED000002B05D1554B01221A60554A554B1A60FB
:102EE000554B1B6803F00103002B05D1524B012207
:102EF0001A60524A524B1A60524B1B6803F001038E
:102F0000002B05D14F4B01221A604F4A4F4B1A60DC
:102F10004F4B1B6803F00103002B05D14C4B0122E2
:102F20001A604C4A4C4B1A604C4B1B6803F001036F
:102F3000002B05D1494B01221A60494A494B1A60BE
:102F4000494B1B6803F00103002B05D1464B0122BE
:102F50001A60464A464B1A60464B1B6803F0010351
:102F6000002B08D1434B01221A60002303220221C7
:102F70004148FDF75BFE414B1B6803F00103002B4A
:102F800008D13E4B01221A6000231A2201213C483D
:102F9000FDF74CFE3B4B1B6803F00103002B08D1EF
:102FA000384B01221A600023182201213648FDF710
:102FB0003DFE364B1B6803F00103002B08D1334B59
:102FC00001221A600023122201213148FDF72EFE52
:102FD00000BF0837BD46BDE8F08100BF7412001085
:102FE00000C00240200D00107812001045080000BB
:102FF000300D0010000000108D0800007C12001041
:10300000400D001080120010440D001084120010BA
:10301000480D0010881200104C0D00109D2D00006E
:103020008C12001000C00F4094110010901200107C
:1030300000C00140980000109412001000C005402C
:10304000B40000109812001000000A40D0000010D8
:103050009C12001000800840EC000010A01200102C
:103060000000034004010010A412001000C00A4038
:103070001C010010A812001098110010AC120010D2
:10308000B8110010B0120010D8110010B4120010C6
:10309000F811001080B500AF4FF6FF710120FFF767
:1030A00091FE80BD80B586B002AF786039603A6825
:1030B00007F10C03009300230021786804F064FA00
:1030C000FB6818461037BD4680BDFFFF80B584B051
:1030D00000AF786039603B68FB600F217868FFF7CC
:1030E000E1FF034623F00103BB60FB681968BB687E
:1030F000043B1A46064801F0FDFBFB681B685A1C9E
:10310000FB681A60002318461037BD4680BD00BF1B
:10311000D485000080B584B000AF786039603B682A
:10312000FB600F217868FFF7BDFF034623F0010322
:10313000BB60BB68043B1946064801F0DBFBFB683B
:103140001B685A1CFB681A60002318461037BD46DE
:1031500080BD00BFE485000080B584B000AF0346A9
:103160003960FB710023FB6007F10C031946174817
:1031700004F0E8FD3B68002B05D0FB683A6819466F
:10318000134801F0B7FBFB79002B1BD0114801F06D
:10319000B1FB114801F0AEFB104801F0ABFB07F1A9
:1031A0000C0319460E4804F0CDFD3B68002B03D0FC
:1031B00039680C4801F09EFB0B4801F09BFB0B4863
:1031C00000F03AFA00BF1037BD4680BDCD30000098
:1031D000EC850000F8850000308600003C86000089
:1031E00015310000588600006086000068860000E7
:1031F00080B400AF00BFFDE780B582B000AF78605B
:1032000039607B68012B16D13B684FF6FF72934201
:1032100011D10B4B1B6803F00103002B0BD1084BA2
:1032200001221A6007490848FFF77AF8074A084957
:10323000054803F0A1FC00BF0837BD4680BD00BFB4
:103240007812001045080000300D0010000000103A
:103250008D08000080B500AF4FF6FF710120FFF729
:10326000CBFF80BD80B487B000AF00237B617A695B
:1032700013465B0013449B001F4A13441F4A9342AA
:1032800033D21D497A6913465B0013449B000B44FB
:103290001B68FB6018497A6913465B0013449B0066
:1032A0000B445B68BB6014497A6913465B001344A6
:1032B0009B000B4408331B687B6000233B613A6929
:1032C0007B689A420DD23B699B00FA681A443B69BD
:1032D0009B00B9680B4412681A603B6901333B617B
:1032E000EDE77B6901337B61C1E700BF1C37BD4659
:1032F0005DF8047B704700BFE4000000FC000000A4
:1033000080B485B000AF0023FB60FB68DB00154A8A
:103310001344154A93421ED2124AFB6852F83330C6
:103320007B60104AFB68DB0013445B683B60002352
:10333000BB60BA683B689A4209D2BB689B007A6856
:10334000134400221A60BB680133BB60F1E7FB68DD
:103350000133FB60D9E700BF1437BD465DF8047B3D
:10336000704700BFFC0000000C01000080B500AFFA
:10337000FFF778FFFFF7C4FF04F0AEFE00BF80BD8B
:1033800080B58CB002AF78607B681B687B627B681D
:103390005B683B627B689B68FB617B68DB68BB6149
:1033A0007B681B697B617B685B693B617B689B69B0
:1033B000FB607B68DB69BB600F4801F09BFA796AB0
:1033C0003A6AF869BB69009303460C4801F092FA27
:1033D00079693A69F868BB6800930346084801F0C8
:1033E00089FAFB6819460120FFF7B6FEFFF700FFD8
:1033F00000BF2837BD4680BD788D0000A48D000039
:10340000D88D000080B400AF1EF0040F0CBFEFF3A6
:103410000880EFF309808169004A1047813300007A
:1034200000BFBD465DF8047B7047FFFF80B584B0E8
:1034300000AF1A4BFB60FB683B603B6883F3098875
:1034400000BFFB687B607B6883F3088800BFFFF7E1
:103450008DFF134B1B6803F00103002B14BF0123E6
:103460000023DBB2002B01D001F07CFA02F044FD16
:10347000FEF704FDB860BB68002B04DBB96809489F
:1034800001F038FA03E0B968074801F033FAFFF7B2
:10349000AFFE00BF1037BD4680BD00BF0000011069
:1034A000F0ED00E0108E0000448E000080B582B088
:1034B00000AF786039607B68012B16D13B684FF60E
:1034C000FF72934211D10B4B1B6803F00103002BD9
:1034D0000BD1084B01221A6007490848FEF720FF6C
:1034E000074A0849054803F047FB00BF0837BD46B7
:1034F00080BD00BF7812001045080000300D00109C
:10350000000000108D08000080B500AF4FF6FF717D
:103510000120FFF7CBFF80BD80B584B000AF284B02
:103520001B68002B03D0274B01221A6043E0254B78
:1035300000221A6002F0D6FC0346234A1360224B95
:103540001A68224B1B689A4209D9214B1B68596D96
:103550001D4A10681D4A1268821A0A445A651A4B9D
:103560001B681A4A13601B4B1B687B607B68B3FAAD
:1035700083F3FB70FB78C3F11F03FB60FA6813460B
:103580009B0013449B00144A1344BB60BB685B68F8
:103590005A68BB685A60BB685A68BB6808339A426D
:1035A00004D1BB685B685A68BB685A60BB685B68DB
:1035B000DB68074A136000BF1037BD4680BD00BFFF
:1035C0002813001024130010301300102C130010C7
:1035D000B812001020130010BC12001080B400AF0D
:1035E00001231846BD465DF8047B704780B483B064
:1035F00000AF786039604FF0FF3318460C37BD4696
:103600005DF8047B7047FFFF80B584B000AFF860C1
:10361000B9607A607B681946B86801F0AAF9054B71
:103620001B687A681146B8689847034618461037F1
:10363000BD4680BD100C001080B584B000AF78602E
:10364000786804F0C7FD0346FB600023BB60FA689E
:1036500079680020FFF7D8FF0246BB681344BB60BF
:10366000012206490020FFF7CFFF0246BB68134442
:10367000BB60BB6818461037BD4680BD788E000021
:1036800080B483B000AF786000BFFDE780B485B040
:1036900000AFB9607A603B600346FB737A683B68B1
:1036A0009A4204D2BA687B681344FA7B1A7000BF4E
:1036B0001437BD465DF8047B704780B588B000AF15
:1036C000B9607A603B600346FB73FE23FB617B6855
:1036D000FA69B3FBF2F2F96901FB02F29B1ABB61D2
:1036E000BA68BB691344FA7B1A70FB7B002B06D1C6
:1036F000BB691A46B9680120FFF786FF12E0BB6973
:103700000133FA699A420DD1FB6901337B61BA68D2
:103710007B69134400221A707B691A46B96801203C
:10372000FFF772FF00BF2037BD4680BD80B485B073
:1037300000AFB9607A603B600346FB7300BF14378B
:10374000BD465DF8047B704780B485B000AF7860FB
:103750007B68FB60FB681B78002B03D0FB680133A0
:10376000FB60F7E7FA687B68D31A18461437BD4642
:103770005DF8047B704780B483B000AF0346FB71F3
:10378000FB792F2B04D9FB79392B01D8012300E0D9
:10379000002318460C37BD465DF8047B704780B5A2
:1037A00084B000AF78600023FB607B681B681B78E7
:1037B0001846FFF7E0FF0346002B0FD0FA681346C8
:1037C0009B0013445B0018467B681B68591C7A6891
:1037D00011601B780344303BFB60E6E7FB6818464A
:1037E0001037BD4680BD90B589B000AFF860B960B4
:1037F0007A603B607B687B61BB6C03F00203002B4B
:103800000ED17A6B3B6C9A420AD27B6B1F2B07D886
:103810007B6B5A1C7A633A6B134430221A70EBE7C5
:10382000BB6C03F00203002B13D1BB6C03F001034C
:10383000002B0ED07A6B7B6C9A420AD27B6B1F2BCB
:1038400007D87B6B5A1C7A633A6B134430221A7088
:10385000E6E7BB6C03F01003002B58D0BB6C03F4FD
:103860008063002B16D17B6B002B13D07A6B3B6CE3
:103870009A4203D07A6B7B6C9A420BD17B6B013BF3
:103880007B637B6B002B05D0FB6B102B02D17B6B1A
:10389000013B7B63FB6B102B0FD1BB6C03F0200350
:1038A000002B0AD17B6B1F2B07D87B6B5A1C7A63CA
:1038B0003A6B134478221A701FE0FB6B102B0FD168
:1038C000BB6C03F02003002B0AD07B6B1F2B07D8A7
:1038D0007B6B5A1C7A633A6B134458221A700CE0C3
:1038E000FB6B022B09D17B6B1F2B06D87B6B5A1C01
:1038F0007A633A6B134462221A707B6B1F2B06D8D3
:103900007B6B5A1C7A633A6B134430221A707B6BC0
:10391000002B14D07A6B7B6C9A4210D197F8383018
:10392000002B09D1BB6C03F00403002B04D1BB6C4A
:1039300003F00803002B02D07B6B013B7B637B6BA6
:103940001F2B24D897F83830002B07D07B6B5A1CDC
:103950007A633A6B13442D221A7018E0BB6C03F0A3
:103960000403002B07D07B6B5A1C7A633A6B134419
:103970002B221A700BE0BB6C03F00803002B06D05F
:103980007B6B5A1C7A633A6B134420221A70BB6C0F
:1039900003F00203002B16D1BB6C03F00103002BD4
:1039A00011D17B6BFB61FA697B6C9A420BD2FC688C
:1039B0007A68531C7B603B68B9682020A047FB698C
:1039C0000133FB61EFE70023BB61BA697B6B9A426D
:1039D00011D2FC687A6BBB69D31A013B3A6B134472
:1039E00018787A68531C7B603B68B968A047BB694C
:1039F0000133BB61E9E7BB6C03F00203002B0ED07F
:103A00007A687B69D31A7A6C9A4208D9FC687A681A
:103A1000531C7B603B68B9682020A047F0E77B68B7
:103A200018462437BD4690BD80B596B008AFF86003
:103A3000B9607A603B6000237B633B6C002B03D151
:103A40007B6D23F010037B657B6D03F48063002B9B
:103A500002D03B6C002B34D03B6CBA6CB3FBF2F25F
:103A6000B96C01FB02F29B1A87F8333097F83330B8
:103A7000092B04D897F833303033DAB20DE07B6D80
:103A800003F02003002B01D0412200E0612297F8CF
:103A900033301344DBB20A3BDAB27B6B591C7963D7
:103AA00007F138010B4403F8282C3A6CBB6CB2FBCD
:103AB000F3F33B643B6C002B03D07B6B1F2B00D8D4
:103AC000CAE77B6D06933B6D0593FB6C0493BB6C5F
:103AD000039397F8443002937B6B019307F1100333
:103AE00000933B687A68B968F868FFF77CFE034684
:103AF00018463837BD4680BD80B596B008AFF8602F
:103B0000B9607A603B6000237B63D7E910231343DD
:103B100003D13B6E23F010033B663B6E03F48063DE
:103B2000002B03D0D7E91023134339D0D7E9100174
:103B3000D7E9142303F0ECF9134687F8333097F8EC
:103B40003330092B04D897F833303033DAB20DE034
:103B50003B6E03F02003002B01D0412200E06122E4
:103B600097F833301344DBB20A3BDAB27B6B591C53
:103B7000796307F138010B4403F8282CD7E91423A3
:103B8000D7E9100103F0C4F902460B46C7E9102338
:103B9000D7E91023134303D07B6B1F2B00D8C5E755
:103BA0003B6D3A6E0692FA6D0592BA6D04920393DC
:103BB00097F8483002937B6B019307F11003009351
:103BC0003B687A68B968F868FFF70DFE0346184647
:103BD0003837BD4680BDFFFF90B59BB000AF786120
:103BE0003961FA60BB6087ED000BFB687B64D7E945
:103BF000000102F0DFFF03467B6600233B664FF0C7
:103C000000033B644FF09E43FB63002387F85F3063
:103C1000D7ED197AF5EEC07AF1EE10FA0AD5012344
:103C200087F85F309FEDAB7AD7ED197A77EE677A38
:103C3000C7ED197AD7F8803003F48063002B01D1E7
:103C40000623BB673B6E1F2B0FD8BB6F092B0CD90C
:103C50003B6E5A1C3A6607F168021344302203F89F
:103C6000502CBB6F013BBB67ECE7D7ED197AFDEE3B
:103C7000E77A17EE903ABB65BB6D07EE903AF8EE27
:103C8000E77A97ED197A37EE677A934ABB6F9B0014
:103C90001344D3ED007A67EE277AC7ED0E7AD7ED9D
:103CA0000E7AFCEEE77A17EE903A7B657B6D07EEB5
:103CB000903AF8EE677A97ED0E7A77EE677AC7ED6D
:103CC000107AD7ED107AB6EE007AF4EEC77AF1EEFC
:103CD00010FA18DD7B6D01337B657B6D07EE903A42
:103CE000B8EE677A7C4ABB6F9B001344D3ED007A31
:103CF000B4EEE77AF1EE10FA19DB00237B65BB6DB9
:103D00000133BB6513E0D7ED107AB6EE007AF4EE1E
:103D1000477AF1EE10FA0AD17B6D002B04D07B6D4F
:103D200003F00103002B02D07B6D01337B65D7EDDF
:103D3000197A9FED6A7AF4EEC77AF1EE10FA01DD96
:103D4000002366E1BB6F002B29D1BB6D07EE903AD3
:103D5000F8EEE77A97ED197A77EE677AC7ED107A81
:103D6000D7ED107AB6EE007AF4EEC77AF1EE10FADB
:103D700003DDBB6D0133BB6562E0D7ED107AB6EEB3
:103D8000007AF4EE477AF1EE10FA59D1BB6D03F0E8
:103D90000103002B54D0BB6D0133BB6550E0BB6FFA
:103DA0003B653B6E1F2B28D83B6D013B3B65796D16
:103DB0004B4BA3FB0123DA0813469B0013445B0023
:103DC000CA1AD3B23033D9B23B6E5A1C3A6607F1E5
:103DD000680213440A4603F8502C7B6D404AA2FB4C
:103DE0000323DB087B657B6D002B0CBF01230023C5
:103DF000DBB2002B00D1D4E700BF3B6E1F2B06D8EF
:103E00003B6D5A1E3A65002B01D0012300E00023D0
:103E1000002B09D03B6E5A1C3A6607F16802134426
:103E2000302203F8502CE8E73B6E1F2B08D83B6E7E
:103E30005A1C3A6607F1680213442E2203F8502CEC
:103E40003B6E1F2B29D8BA6D264B83FB02139910AA
:103E5000D317C91A0B469B000B445B00D11ACBB297
:103E60003033D9B23B6E5A1C3A6607F168021344EC
:103E70000A4603F8502CBB6D1A4A82FB03129210BB
:103E8000DB17D31ABB65BB6D002B0CBF01230023CE
:103E9000DBB2002B00D1D3E700BFD7F8803003F0AE
:103EA0000203002B20D1D7F8803003F00103002B50
:103EB0001AD03A6EFB6F9A4216D23B6E1F2B13D864
:103EC0003B6E5A1C3A6607F168021344302203F82D
:103ED000502CE2E7000000007C8E00000000004F44
:103EE000CDCCCCCC676666663A6EFB6F9A4212D137
:103EF00097F85F30002B0BD1D7F8803003F0040324
:103F0000002B05D1D7F8803003F00803002B02D036
:103F10003B6E013B3B663B6E1F2B2CD897F85F3006
:103F2000002B09D03B6E5A1C3A6607F16802134415
:103F30002D2203F8502C1EE0D7F8803003F0040344
:103F4000002B09D03B6E5A1C3A6607F168021344F5
:103F50002B2203F8502C0EE0D7F8803003F0080332
:103F6000002B08D03B6E5A1C3A6607F168021344D6
:103F7000202203F8502CD7F8803003F00203002BE6
:103F800017D1D7F8803003F00103002B11D13B6E1D
:103F9000FB64FA6CFB6F9A420BD27C69FA68531C83
:103FA000FB60BB6839692020A047FB6C0133FB64D0
:103FB000EFE70023BB64BA6C3B6E9A4213D27C6974
:103FC0003A6EBB6CD31A013B07F16802134413F835
:103FD000500CFA68531CFB60BB683969A047BB6C86
:103FE0000133BB64E7E7D7F8803003F00203002B0E
:103FF0000ED0FA687B6CD31AFA6F9A4208D97C69A2
:10400000FA68531CFB60BB6839692020A047F0E7C1
:10401000FB6818466C37BD4690BD00BFB0B5A0B078
:104020000AAFF860B9607A603B6000237B64BB68CC
:10403000002B01D1A24BFB603B681B78002B00F0EA
:1040400046843B681B78252B0DD0FC683B681878AC
:104050007A6C531C7B647B68B968A0473B6801336A
:104060003B6000F032BC3B6801333B6000237B6562
:104070003B681B78203B102B56D801A252F823F046
:1040800001410000294100002941000015410000C4
:104090002941000029410000294100002941000078
:1040A000294100002941000029410000ED400000A5
:1040B00029410000D94000002941000029410000A9
:1040C000C54000007B6D43F001037B653B68013315
:1040D0003B600123BB642AE07B6D43F002037B65F8
:1040E0003B6801333B600123BB6420E07B6D43F000
:1040F00004037B653B6801333B600123BB6416E02E
:104100007B6D43F008037B653B6801333B60012313
:10411000BB640CE07B6D43F010037B653B680133AF
:104120003B600123BB6402E00023BB6400BFBB6CA7
:10413000002B00D09CE700233B653B681B781846AA
:10414000FFF719FB0346002B05D03B461846FFF747
:1041500026FB386518E03B681B782A2B14D1BB6E10
:104160001A1DBA661B683B633B6B002B07DA7B6D3D
:1041700043F002037B653B6B5B423B6501E03B6BBD
:104180003B653B6801333B600023FB643B681B7865
:104190002E2B24D17B6D43F480637B653B68013318
:1041A0003B603B681B781846FFF7E5FA0346002B97
:1041B00005D03B461846FFF7F2FAF8640FE03B687B
:1041C0001B782A2B0BD1BB6E1A1DBA661B68FB62CB
:1041D000FB6A23EAE373FB643B6801333B603B68A3
:1041E0001B78683B122B67D801A252F823F000BF5E
:1041F00063420000B942000099420000B942000049
:104200003D420000B9420000B9420000B94200003E
:10421000B9420000B9420000B9420000B9420000B2
:1042200089420000B9420000B9420000B9420000D2
:10423000B9420000B9420000A94200007B6D43F47E
:1042400080737B653B6801333B603B681B786C2B5C
:1042500034D17B6D43F400737B653B6801333B6075
:104260002CE07B6D43F080037B653B6801333B6052
:104270003B681B78682B25D17B6D43F040037B6541
:104280003B6801333B601DE07B6D43F480737B65CD
:104290003B6801333B6016E07B6D43F400737B6544
:1042A0003B6801333B600EE07B6D43F480737B65BC
:1042B0003B6801333B6006E000BF04E000BF02E062
:1042C0002D37000000BF3B681B78253B532B00F2C5
:1042D000EF8201A252F823F099480000B148000093
:1042E000B1480000B1480000B1480000B1480000EA
:1042F000B1480000B1480000B1480000B1480000DA
:10430000B1480000B1480000B1480000B1480000C9
:10431000B1480000B1480000B1480000B1480000B9
:10432000B1480000B1480000B1480000B1480000A9
:10433000B1480000B1480000B1480000B148000099
:10434000B1480000B1480000B1480000B148000089
:10435000B1480000B1480000B1480000B746000075
:10436000B1480000B1480000B1480000B148000069
:10437000B1480000B1480000B1480000B148000059
:10438000B1480000B1480000B1480000B148000049
:10439000B1480000B1480000B1480000B148000039
:1043A000B148000029440000B1480000B1480000B5
:1043B000B1480000B1480000B1480000B148000019
:1043C000B1480000B1480000B14800002944000095
:1043D000F346000029440000B1480000B746000041
:1043E000B1480000B148000029440000B148000075
:1043F000B1480000B1480000B1480000B1480000D9
:104400002944000051480000B1480000B1480000B4
:104410007B470000B148000029440000B14800007B
:10442000B1480000294400003B681B78782B03D07A
:104430003B681B78582B02D110233B6413E03B6888
:104440001B786F2B02D108233B640CE03B681B7880
:10445000622B02D102233B6405E00A233B647B6D9F
:1044600023F010037B653B681B78582B03D17B6DD1
:1044700043F020037B653B681B78692B07D03B68C2
:104480001B78642B03D07B6D23F00C037B657B6D65
:1044900003F48063002B03D07B6D23F001037B6565
:1044A0003B681B78692B04D03B681B78642B40F079
:1044B0008E807B6D03F40073002B2FD0BB6E07330F
:1044C00023F0070303F10802BA66D3E90023C7E922
:1044D0000423D7E90423002A73F1000102DA5242CF
:1044E00063EB4303104619467B69DB0FDCB23B6C80
:1044F0001A464FF000037D6D08953D6D0795FD6CE4
:104500000695CDE904230294CDE900017B687A6C1D
:10451000B968F868FFF7F0FA7864C8E07B6D03F4D7
:104520008073002B1ED0BB6E1A1DBA661B68FB6120
:10453000FB69002BB8BF5B421946FB69DB0FDBB29E
:104540007A6D05923A6D0492FA6C03923A6C02927B
:10455000019300917B687A6CB968F868FFF764FA98
:104560007864A4E07B6D03F04003002B05D0BB6EA4
:104570001A1DBA661B68DBB20EE07B6D03F0800388
:10458000002B05D0BB6E1A1DBA661B681BB203E078
:10459000BB6E1A1DBA661B683B623B6A002BB8BF34
:1045A0005B4219463B6ADB0FDBB27A6D05923A6DCE
:1045B0000492FA6C03923A6C0292019300917B6828
:1045C0007A6CB968F868FFF72FFA78646FE07B6D52
:1045D00003F40073002B20D0BB6E073323F00703D6
:1045E00003F10802BA66D3E90023396C08464FF09C
:1045F00000017C6D08943C6D0794FC6C0694CDE939
:10460000040100210291CDE900237B687A6CB9682E
:10461000F868FFF771FA786449E07B6D03F4807302
:10462000002B16D0BB6E1A1DBA661B687A6D0592F8
:104630003A6D0492FA6C03923A6C02920022019253
:1046400000937B687A6CB968F868FFF7EDF97864D5
:104650002DE07B6D03F04003002B05D0BB6E1A1DCF
:10466000BA661B68DBB20EE07B6D03F08003002BA3
:1046700005D0BB6E1A1DBA661B689BB203E0BB6E09
:104680001A1DBA661B687B627B6D05933B6D0493B4
:10469000FB6C03933B6C0293002301937B6A0093B2
:1046A0007B687A6CB968F868FFF7BEF978643B6894
:1046B00001333B6009E1BB6E073323F0070303F1CD
:1046C0000802BA6693ED007B7B6D02933B6D01930C
:1046D000FB6C0093B0EE470AF0EE670A7B687A6CD9
:1046E000B968F868FFF778FA78643B6801333B6093
:1046F000EBE00123FB637B6D03F00203002B13D17E
:10470000FB6B5A1CFA633A6D9A428CBF012300235B
:10471000DBB2002B08D0FC687A6C531C7B647B688E
:10472000B9682020A047EBE7FC68BB6E1A1DBA668B
:104730001B68D8B27A6C531C7B647B68B968A0474D
:104740007B6D03F00203002B13D0FB6B5A1CFA6342
:104750003A6D9A428CBF01230023DBB2002B08D0B4
:10476000FC687A6C531C7B647B68B9682020A04786
:10477000EBE73B6801333B60A7E0BB6E1A1DBA66EE
:104780001B68BB63B86BFEF7DFFF78637B6D03F4D8
:104790008063002B07D07A6BFB6C9A4201D27B6B53
:1047A00000E0FB6C7B637B6D03F00203002B13D1F5
:1047B0007B6B5A1C7A633A6D9A428CBF01230023AB
:1047C000DBB2002B08D0FC687A6C531C7B647B68DE
:1047D000B9682020A047EBE7BB6B1B78002B0BD000
:1047E0007B6D03F48063002B04D0FB6C5A1EFA64CB
:1047F000002B01D0012300E00023002B0BD0FC682C
:10480000BB6B5A1CBA6318787A6C531C7B647B6848
:10481000B968A047E0E77B6D03F00203002B13D0DB
:104820007B6B5A1C7A633A6D9A428CBF012300233A
:10483000DBB2002B08D0FC687A6C531C7B647B686D
:10484000B9682020A047EBE73B6801333B603CE0C0
:1048500008233B657B6D43F021037B65002387F8CC
:104860002B30BB6E1A1DBA661B681A467B6D05930A
:104870003B6D0493FB6C039310230293002301937D
:1048800000927B687A6CB968F868FFF7CDF87864B5
:104890003B6801333B6018E0FC687A6C531C7B6416
:1048A0007B68B9682520A0473B6801333B600CE07A
:1048B000FC683B6818787A6C531C7B647B68B96829
:1048C000A0473B6801333B6000BFFFF7B5BBFC6806
:1048D0007A6C7B689A4202D37B685A1E00E07A6C3D
:1048E0007B68B9680020A0477B6C18465837BD46E6
:1048F000B0BD00BF0FB480B5C4B002AF07F58A7376
:10490000C7F800313946D7F800310093D7F8103195
:104910004FF0FF320748FFF781FBC7F80401D7F8D3
:104920000431184607F58477BD46BDE8804004B0E1
:10493000704700BFBB36000080B586B002AFF8609C
:10494000B9607A603B603B6800937B68BA68F9683D
:104950000348FFF763FB034618461037BD4680BD8A
:104960008D36000080B400AF00BFBD465DF8047B0B
:10497000704780B582B000AF786039603968786878
:1049800000F006F8034600BF18460837BD4680BD54
:10499000B0B58CB000AF786039602C4B1B6803F069
:1049A0000103002B0CBF01230023DBB2002B01D03D
:1049B0003B6847E0264B1B68002B1DD1254BBB6095
:1049C0000423FB6003233B610123BB6207F108035F
:1049D0007B62BC6A7D6A20462946ABBE04463C62C7
:1049E0003B6AFB62FB6AB3F1FF3F02D14FF0FF333A
:1049F00028E0174AFB6A1360154B1B68BB607B6895
:104A0000FB603B683B610523FB6107F10803BB6169
:104A1000FC69BD6920462946ABBE04467C617B69C2
:104A2000FB62FB6AB3F1FF3F02D14FF0FF3309E0B5
:104A30003B68FA6A9A4202D14FF0FF3302E03A68CB
:104A4000FB6AD31A18463037BD46B0BDF0ED00E022
:104A500034130010A48E000080B483B000AF7860DF
:104A60000C4B1B68DA680B4B1B6842F08072DA60F3
:104A7000094B1B6800225A60074B1B681A68064BDB
:104A80001B6842F001021A6000BF0C37BD465DF89A
:104A9000047B70471C0C0010180C001080B483B00D
:104AA00000AF7860044B1B685B6818460C37BD4646
:104AB0005DF8047B704700BF180C001080B400AF95
:104AC000DFF81C00016841F470010160BFF34F8FF3
:104AD000BFF36F8F00BFBD465DF8047B70470000D9
:104AE00088ED00E080B483B000AF7860044A7B6852
:104AF000136000BF0C37BD465DF8047B704700BFF4
:104B00001C0D001080B584B000AFC7E90001D7E9E3
:104B1000000102F067F9024607F10C0300EE102ACB
:104B20001846FBF714FEFB6818461037BD4680BDDB
:104B300080B586B000AF7860786800F007F8F0EED6
:104B4000407AB0EE670A1837BD4680BD80B485B0A4
:104B500000AFF86039723A713B70FB681B6807EE72
:104B6000903AB0EE670A1437BD465DF8047B704793
:104B700080B586B000AF7860786800F007F8F0EE96
:104B8000407AB0EE670A1837BD4680BD80B485B064
:104B900000AFF86039723A713B70FB681B6807EE32
:104BA000903AB0EE670A1437BD465DF8047B704753
:104BB00080B52DED028B82B000AF786039607B68E4
:104BC00093ED008A3B681846FFF7D2FFF0EE407A7B
:104BD000B4EEE78AF1EE10FA94BF01230023DBB2B2
:104BE00018460837BD46BDEC028B80BD80B582B04B
:104BF00000AF78607968034801F0F0F900BF08372A
:104C0000BD4680BD300D001080B483B000AF786029
:104C1000044A7B68136000BF0C37BD465DF8047B17
:104C2000704700BF240D001080B584B000AF07F1BD
:104C30000803184601F02BFA07F108023B4611461B
:104C4000184601F031FA3B4619460848FBF7E4FDE7
:104C50000748FEF711F80346002B02D00448FDF781
:104C6000A9FB00BF1037BD4680BD00BF4813001030
:104C70003813001080B584B000AFF860B9607A6076
:104C8000FB68BA687968184600F005F800BFF86854
:104C90001037BD4680BDB0B588B000AFF860B960D0
:104CA0007A60BB68D3E90023C7E9062307F118033C
:104CB0001846FBF7F5FC7B681B681A464FF00003AB
:104CC00002FB01F500FB03F42C44A0FB0223E118D6
:104CD0000B46C7E9042307F110031946F868FBF7F0
:104CE000EDFCF8682037BD46B0BD80B588B000AF98
:104CF000F860B9607A60BB68D3E90023C7E906238E
:104D000007F118031846FBF7CBFC7B681B681A46B3
:104D10004FF0000302F0ACF802460B46C7E904234B
:104D200007F110031946F868FBF7C8FCF86820374C
:104D3000BD4680BD80B58CB000AF78601648FFF7E7
:104D4000ADFEF862154BD3E90023C7E90823144BE5
:104D50001A68FB6AB3FBF2F102FB01F29B1AFB61DA
:104D600007F1100307F11C010E4A1846FFF782FFF6
:104D700007F1080307F110010B4A1846FFF7B5FFCA
:104D80007B6807F1080207F12001184601F041F99C
:104D900078683037BD4680BD5013001048130010AE
:104DA000300C0010280C0010F095000090B58BB06E
:104DB00000AFF8601C48FFF74FFEFBF7F9FC034615
:104DC0001A680C3212681846904703467B6107F157
:104DD0001403184601F082F903463B613B69134A0C
:104DE000A2FB03239B09124A136007F12003184614
:104DF00001F080F907F1180307F120020D49184668
:104E0000FFF738FF0C4C3B4607F1100207F1180181
:104E10001846FFF76AFFD7E90023C4E9002300BF63
:104E20002C37BD4690BD00BF50130010D34D62100B
:104E3000300C0010F0950000280C001080B582B0F6
:104E400000AF7860396039680348FDF72FFB00BF79
:104E50000837BD4680BD00BF38130010B0B58AB01A
:104E600000AF786004237B621D4B1B685B68002BDE
:104E700014BF01230023DBB2002B2CD0FBF7CAFAAE
:104E80000446236804331D684FF0FF33BB6007F10D
:104E90000803043313491846FDF7DEFA7B681B79D3
:104EA000FB6107F1080319462046A84707F10803EC
:104EB0001846FBF7A9FF07233B62094B1B6800223A
:104EC0009A60074B1B681968054B1B683A6A0A43CE
:104ED0001A6000237B627B6A18462837BD46B0BD46
:104EE000200C0010294C000080B582B000AF786023
:104EF000786801F00CF9034618460837BD4680BDB6
:104F000080B584B000AF786039607B681846FCF7E4
:104F1000BDF8B0EE407A3B6807EE903AF8EEE77ADB
:104F200077EE677A07F10C03B0EE670A1846FCF7D4
:104F3000E5F9FB6818461037BD4680BD80B582B0E4
:104F400000AF7860786800F005F803461846083727
:104F5000BD4680BD80B582B000AF78607B681846E2
:104F6000FCF794F8F0EE407AFCEEE77A17EE903A10
:104F700018460837BD4680BD90B589B000AF78604F
:104F800039604FF001004FF00001FFF7BBFD034611
:104F9000FB6007F10C023B4611461846FFF708FE7E
:104FA0000346002B02D04FF0FF3340E0FBF700FC3C
:104FB00003461A680C321268184690470346BB60D5
:104FC0003A4607F1080311461846FCF76BF9034609
:104FD0007B6107F1140301211846FFF791FF034697
:104FE0003B6107F110031846FFF77EFFF86107F1F8
:104FF00008031846FFF7A2FF04463B461846FFF792
:105000009DFF0346B4FBF3F203FB02F3E31ABB611B
:10501000FB69B3F1807F05D36FF07F43FB616FF0D5
:105020007F43BB61044B1B68FA695A60BB69184631
:105030002437BD4690BD00BF200C001080B483B063
:1050400000AF78607B68D3E90023104619460C371F
:10505000BD465DF8047B704780B483B000AF7860D4
:1050600039603B68D3E900237968C1E900237B6894
:1050700018460C37BD465DF8047B704780B586B096
:1050800000AF7860786800F007F8F0EE407AB0EE94
:10509000670A1837BD4680BD80B485B000AFF860A0
:1050A00039723A713B70FB68D3ED007A9FED057A57
:1050B00067EE877AB0EE670A1437BD465DF8047B69
:1050C000704700BF0024744980B584B000AF786099
:1050D00039600021786800F0E3F84FF00C004FF0E1
:1050E0000001FBF7FDFA0346BB6007F108023B46EF
:1050F0001146184600F082F90346002B0FD0164BDC
:105100003A681968786800F095FA0121786800F02B
:10511000EBF83B461946114801F014F807E000216E
:10512000786800F0E1F80E490C4801F00BF8012115
:10513000786800F0E3FAFF233B7307F10C030122C8
:105140001946786800F00EF80021786800F014FB2A
:1051500000BF1037BD4680BDF4950000340C001030
:10516000F895000080B584B000AFF860B9601346D0
:10517000FB71FB79042B0ED9B2230B4A0B490C4867
:10518000FFF7B8FB0B48FEF757FA00210120FDF7A7
:10519000E3FFFEF72DF8084B1B68FA79C3F8A82146
:1051A00000BF1037BD4680BD988F000014960000E8
:1051B0001C900000BC9000009411001080B483B0DB
:1051C00000AF78603960054B1B68D3F8A8311846EA
:1051D0000C37BD465DF8047B704700BF941100108A
:1051E00080B483B000AF7860034B1B6818460C375F
:1051F000BD465DF8047B7047340C001080B485B068
:1052000000AF786039600B4B1B68D3F8C4303A6844
:105210001278114601228A401340002B14BF01234B
:105220000023FB73FB7B18461437BD465DF8047BF7
:10523000704700BF9411001090B583B000AF786044
:105240003960094B1B68D3F8C4203B681B781946AA
:10525000054B1C681046FDF7D6F80346C4F8C43069
:1052600000BF0C37BD4690BD9411001090B583B0BF
:1052700000AF78603960094B1B68D3F8C4203B68E5
:105280001B781946054B1C681046FDF7A9F8034624
:10529000C4F8C43000BF0C37BD4690BD9411001057
:1052A00090B583B000AF78600B467B800C4B1B68D9
:1052B000D3F80C0179880A4B1C680A4B1A785B7882
:1052C0001B021A43002362F30F031A4600F04DFF3E
:1052D0000346C4F80C3100BF0C37BD4690BD00BF7B
:1052E00094110010FC95000090B583B000AF786079
:1052F0000B467B800C4B1B68D3F8040179880A4B62
:105300001C680A4B1A785B781B021A43002362F36D
:105310000F031A4600F029FF0346C4F8043100BF0A
:105320000C37BD4690BD00BF9411001008960000D8
:1053300090B583B000AF78600B467B800C4B1B6848
:10534000D3F8080179880A4B1C680A4B1A785B78F5
:105350001B021A43002362F30F031A4600F005FFF5
:105360000346C4F8083100BF0C37BD4690BD00BFEE
:10537000941100100C96000090B583B000AF7860D7
:105380000B467B800C4B1B68D3F8B40179880A4B21
:105390001C680A4B1A785B781B021A43002362F3DD
:1053A0000F031A4600F0E1FE0346C4F8B43100BF13
:1053B0000C37BD4690BD00BF941100101096000040
:1053C00080B52DED028B82B000AF786039607B68CC
:1053D00093ED008A3B681846FFF7AAFBF0EE407A8F
:1053E000B4EEE78AF1EE10FA4CBF01230023DBB2E2
:1053F00018460837BD46BDEC028B80BD80B52DED4B
:10540000028B82B000AF786039607B6893ED008AD0
:105410003B681846FFF78CFBF0EE407AB4EEE78A63
:10542000F1EE10FACCBF01230023DBB21846083797
:10543000BD46BDEC028B80BD80B582B000AF786008
:10544000786800F005F8034618460837BD4680BD69
:1054500080B582B000AF78607B681846FBF716FE17
:10546000F0EE407AFCEEE77A17EE903A18460837ED
:10547000BD4680BD80B582B000AF78607B681846BD
:10548000FBF704FEF0EE407AFCEEE77A17EE903A76
:105490009BB218460837BD4680BDFFFF90B58DB062
:1054A00000AFF860B9607A604FF4C0704FF000014F
:1054B000FBF716F903463B6107F110023B1D11464D
:1054C0001846FFF77DFF034683F00103DBB2002B94
:1054D00014D14FF00C004FF00001FBF701F9034627
:1054E0007B6107F114023B1D11461846FFF786FF4A
:1054F000034683F00103DBB2002B01D0012300E05F
:105500000023002B0ED0F423444A45494548FFF7B9
:10551000F1F94548FEF790F800210120FDF71CFE47
:10552000FDF766FE012387F82F303B1D1846FFF775
:1055300083FF044607F108031846FFF77DFF034683
:10554000B4FBF3F203FB02F3E31A002B14BF0123B5
:105550000023DBB2002B17D007F108023B1D1146D8
:10556000184600F014FE0346FB6107F11C030121FD
:10557000184600F038FE0346BB6107F118031846D1
:1055800000F0C5FDB8620EE007F108023B1D1146B0
:10559000184600F0FCFD03463B6207F12003184665
:1055A00000F0B5FDB8620123FB8497F82F30002B83
:1055B0002FD007F108031846FFF75CFF03461A4691
:1055C000BB6A9BB212FB03F39BB2FA8C12FB03F390
:1055D0009BB25B00BB84BB8C9B2B03D9002387F859
:1055E0002F30E2E7FB8C5B00FB84FB8C072BDCD9C4
:1055F00040F21113094A0D490D48FFF77BF90A489B
:10560000FEF71AF800210120FDF7A6FDFDF7F0FDD9
:10561000CBE7BB6A18463437BD4690BDD490000036
:105620002C96000050910000BC90000044960000B1
:105630004092000080B586B000AFF860B9607A6033
:105640000123FB827A68B968F868FFF727FF3861A1
:105650000021F868FFF724FE0021F868FFF744FEF8
:105660000021F868FFF764FE0021F868FFF784FE68
:10567000214B1B68D3F8843023F01F013B695A1E6D
:105680001D4B1B680A43C3F884201B4B1B68D3F8CF
:10569000843023F06002FB8A5B011946164B1B68BD
:1056A0000A43C3F88420144B1B68D3F88020124BA4
:1056B0001B6842F00102C3F880200F4B1B68AA222E
:1056C000C3F88C200C4B1B685522C3F88C200A4B66
:1056D0001B68D3F888300A211846FCF7A6FE03465B
:1056E00083F00103DBB2002B01D000BFEFE700BF66
:1056F0001837BD4680BD00BF9411001090B583B02F
:1057000000AF78600B46FB70FB781F2B0FD94FF46E
:10571000A973134A13491448FFF7ECF81348FDF72F
:105720008BFF00210120FDF717FDFDF761FD104BF8
:105730001B68D3F804010E4B1C680E4BF9781A78DD
:105740005B781B021A43002362F30F031A46FCF72F
:105750008FFD0346C4F8043100BF0C37BD4690BD31
:10576000E89200005C96000030930000BC900000BE
:10577000941100100496000090B583B000AF7860DB
:105780000B46FB700C4B1B68D3F80001F9780A4BF1
:105790001C680A4B1A785B781B021A43002362F3D9
:1057A0000F031A4600F0E1FC0346C4F8003100BFC5
:1057B0000C37BD4690BD00BF94110010009600004C
:1057C00080B582B000AF78607B681B6808331B68C7
:1057D00002217868984700BF0837BD4680BD80B574
:1057E00082B000AF7860786800F020F800BF08371A
:1057F000BD4680BD80B584B000AF78607B681B6813
:105800000C331B6807F10F010122786898470346A3
:10581000002B0CBF01230023DBB2002B01D0FF23A0
:10582000FB73FB7B18461037BD4680BD80B582B048
:1058300000AF78607B681B6810331B6878689847F6
:105840000346002B03D07868FFF7D4FFF2E700BFD0
:105850000837BD4680BDFFFF80B489B000AF7860D7
:1058600087ED000A7B6800221A607B6800225A607C
:105870007B6801229A600023FB770023BB61BB6930
:105880000E2B4FDCFB7F002B4CD1BB6901337B61BE
:105890007B690E2B42DCFB7F002B3FD1BB6907EEFF
:1058A000903AF8EEE77AC7ED047A7B6907EE903A12
:1058B000F8EEE77AC7ED037AD7ED046A97ED037A3D
:1058C000C6EE877AB7EE007A77EE877AC7ED027A6E
:1058D000D7ED027A9FED177A77EE877A97ED007A07
:1058E000B4EEE77AF1EE10FA14D8D7ED027A9FED14
:1058F000117A77EEC77A97ED007AB4EEE77AF1EE97
:1059000010FA07DBBA697B685A607A697B689A602B
:105910000123FB777B6901337B61B9E7BB69013305
:10592000BB61ACE700BF78682437BD465DF8047BF7
:10593000704700BF0AD7233C80B487B000AF87ED23
:10594000030AC7ED020A78607B6807EE903AF8EE2A
:10595000677AC7ED057AD7ED037AB3EE007A27EEC2
:10596000877AD7ED027A67EE277A97ED057AC7EE48
:10597000276AF0EE667AB0EE670A1C37BD465DF81E
:10598000047B704780B487B000AF87ED030AC7ED92
:10599000020A78607B6807EE903AF8EE677AC7ED06
:1059A000057AD7ED037AB3EE007A27EE877AD7ED42
:1059B000027A67EE277A97ED057AC7EE276AF0EE4E
:1059C000667AB0EE670A1C37BD465DF8047B704707
:1059D00080B483B000AF87ED010AD7ED017AB6EE4F
:1059E000007A77EE877AFDEEE77AF8EEE77AB0EEA6
:1059F000670A0C37BD465DF8047B704780B586B0FA
:105A000000AF87ED010A0023FB7597ED010AFFF750
:105A1000DFFF87ED040A97ED017AD7ED047A77EE80
:105A2000677AC7ED037AD7ED037A9FED0B7AF4EE30
:105A3000C77AF1EE10FA0ADBD7ED037A9FED077A09
:105A4000F4EEC77AF1EE10FA01D80123FB75FB7D65
:105A500018461837BD4680BD0AD723BC0AD7233C59
:105A600090B591B000AFF861B9617A6107F11403A4
:105A70001846FFF763FAB8620023FB63FB69002254
:105A80001A60FB6900225A60FB6901229A60BB69B7
:105A900007EE903AF8EE677AC7ED097A4FF0000307
:105AA000BB634FF07F537B634FF07E533B634FF0FC
:105AB0008043FB62FB6B042B00F0BE80FB6B032B6F
:105AC00000F2B88001A252F823F000BFDD5A0000B6
:105AD000375B0000975B0000075C0000B86AF7EED8
